:100C2C00256300474554202F6C616D70636E746CA6
:100C3C00310031003000256325632563004745549E
:100C4C00202F6C616D70636E746C320047455420BC
:100C5C002F6C616D70636E746C3300474554202F9C
:100C6C006C616D70636E746C3400474554202F00BA
:100C7C00485454502F312E3120323030204F4B0AF3
:050C8C000A00257300C1
:1009DD00E4F545F546758920759852758DF3438775
:1009ED0080D28EE4F545F546F544F522F523309891
:1009FD001EC29874242544F8A699E4F545F54605DC
:100A0D0044C3E544648094A040E475441F80DF0531
:100A1D0046E54670020545C394C8E5459400400877
:100A2D00E54464809485502D0523E523700205224D
:100A3D00AE22FFE4FCFD7BFA7AFFF9F8D3120B88A6
:100A4D0050ACE4F522F5237BFF7A0C792C754AAA7C
:100A5D001206E38099754AFF754B0C754C2F754D39
:100A6D0000754E0E7B007A007924120C91EF7017F1
:100A7D00B2907BFF2090067A0C793E80047A0C7937
:100A8D00401206E3020B25754AFF754B0C754C4958
:100A9D00754D00754E0E7B007A007924120C91EF86
:100AAD007016B2917BFF2091067A0C793E80047A04
:100ABD000C79401206E38060754AFF754B0C754C3E
:100ACD0058754D00754E0E7B007A007924120C91ED
:100ADD00EF7016B2927BFF2092067A0C793E80045D
:100AED007A0C79401206E3802F754AFF754B0C7511
:100AFD004C67754D00754E0E7B007A007924120CF3
:100B0D0091EF7029B2937BFF2093067A0C793E808A
:100B1D00047A0C79401206E37BFF7A0C7942754A10
:100B2D00A5754BA5754CA51206E30209F0754AFF94
:100B3D00754B0C754C76754D00754E057B007A0026
:100B4D007924120C91EF60030209F07BFF7A0C7986
:100B5D007C1206E3754AFF754B00754C037BFF7ADB
:100B6D000C798E1206E37BFF7A0C7942754AA575D6
:0B0B7D004BA5754CA51206E30209F021
:100003003C21444F43545950452068746D6C3E0D58
:100013000A0D0A3C68746D6C3E200D0A20200D0AFF
:100023003C686561643E0D0A3C7469746C653E41CD
:10003300706C696361E7E36F20534D503C2F746923
:10004300746C653E0D0A3C6D657461206E616D656F
:100053003D2276696577706F72742220636F6E74C8
:10006300656E743D2277696474683D64657669637F
:10007300652D77696474682C20696E697469616C95
:100083002D7363616C653D312E30223E0D0A3C7346
:1000930074796C653E0D0A2E627574746F6E207BE5
:1000A3000D0A20206261636B67726F756E642D6346
:1000B3006F6C6F723A20233034414136443B202F1A
:1000C3002A20477265656E202A2F0D0A2020626F51
:1000D300726465723A206E6F6E653B0D0A20206272
:1000E3006F726465722D7261646975733A2031327F
:1000F30070783B0D0A2020636F6C6F723A2077682B
:100103006974653B200D0A2020666F6E742D736938
:100113007A653A20313670783B0D0A20207769647E
:1001230074683A2031323570783B0D0A20206865B7
:10013300696768743A20363070783B0D0A7D0D0A82
:10014300626F6479207B0D0A20206261636B6772A2
:100153006F756E642D636F6C6F723A206C6967689C
:1001630074626C75653B0D0A20206261636B677274
:100173006F756E642D696D6167653A2075726C28C1
:100183002768747470733A2F2F77616C6C70617089
:1001930065726163636573732E636F6D2F66756C30
:1001A3006C2F313431383738322E6A706727293B48
:1001B3000D0A20206261636B67726F756E642D7226
:1001C30065706561743A206E6F2D72657065617438
:1001D3003B0D0A20206261636B67726F756E642D3D
:1001E3006174746163686D656E743A2066697865DD
:1001F300643B200D0A20206261636B67726F756E2A
:10020300642D73697A653A20636F7665723B2020AB
:1002130020202020200D0A7D2020202020202020A7
:1002230020202020202020202020202020202020CB
:10023300202020202020200D0A3C2F7374796C6528
:100243003E2020202020202020202020202020208D
:100253002020202020202020200D0A3C2F686561CB
:10026300643E202020202020202020202020202029
:1002730020202020202020202020200D0A202020A4
:10028300202020202020202020202020202020206B
:10029300202020202020202020202020200D0A3C68
:1002A300626F64793E2020202020202020202020FF
:1002B30020202020202020202020202020200D0A64
:1002C3003C6831207374796C653D22636F6C6F7287
:1002D3003A4F72616E67653B223E434F4E54524F15
:1002E3004C45204445204CC24D50414441533C2F82
:1002F30068313E200D0A3C70207374796C653D2291
:10030300636F6C6F723A23336362333731223E5328
:10031300656C6563696F6E6520756D20646F73200E
:10032300626F74F565733C2F703E200D0A3C703E7E
:100333003C627574746F6E20636C6173733D2262EB
:100343007574746F6E22206964203D2022627431BB
:1003530022206F6E636C69636B3D226C6F61644432
:100363006F63283129223E4C414D50313C2F627539
:0D03730074746F6E3E3C2F703E0D0A3C709E
:100380003E3C627574746F6E20636C6173733D22C2
:10039000627574746F6E22206964203D202262743D
:1003A0003222206F6E636C69636B3D226C6F6164F7
:1003B000446F63283229223E4C414D50323C2F621B
:1003C0007574746F6E3E3C2F703E200D0A3C703E7B
:1003D0003C627574746F6E20636C6173733D22624E
:1003E0007574746F6E22206964203D20226274331C
:1003F00022206F6E636C69636B3D226C6F61644495
:100400006F63283329223E4C414D50333C2F627597
:1004100074746F6E3E3C2F703E200D0A3C703E3C63
:10042000627574746F6E20636C6173733D226275C4
:1004300074746F6E22206964203D2022627434221D
:10044000206F6E636C69636B3D226C6F6164446FF7
:1004500063283429223E4C414D50343C2F62757440
:10046000746F6E3E3C2F703E0D0A200D0A3C736384
:10047000726970743E200D0A0D0A66756E637469A8
:100480006F6E206C6F6164446F63286129207B204C
:100490000D0A2020766172206274203D2022627451
:1004A00022202B20613B0D0A2020766172206C6196
:1004B0006D70203D20226C616D70636E746C222023
:1004C0002B20613B200D0A2020646F63756D656EE3
:1004D000742E676574456C656D656E744279496408
:1004E000286274292E7374796C652E6261636B6760
:1004F000726F756E64436F6C6F72203D20222338DB
:100500003038303830223B0D0A2020636F6E737410
:10051000207868747470203D206E657720584D4CAB
:10052000487474705265717565737428293B202076
:10053000200D0A202078687474702E6F6E6C6F61C5
:1005400064203D2066756E6374696F6E2829207B78
:10055000200D0A2020202069662028746869732EE7
:10056000726573706F6E7365546578743D3D3029A4
:10057000207B20200D0A202020202020646F63751E
:100580006D656E742E676574456C656D656E74423D
:10059000794964286274292E7374796C652E6261BE
:1005A000636B67726F756E64436F6C6F72203D2072
:1005B0002223303441413644223B0D0A20202020A2
:1005C0007D20656C7365207B0D0A20202020202073
:1005D000646F63756D656E742E676574456C656DCB
:1005E000656E7442794964286274292E7374796C3B
:1005F000652E6261636B67726F756E64436F6C6FBB
:1006000072203D2022726564223B0D0A20202020AA
:100610007D0D0A20207D20200D0A2020786874742A
:10062000702E6F70656E2822474554222C206C6115
:100630006D702C2074727565293B200D0A2020787E
:10064000687474702E73656E6428293B0D0A7D20D2
:100650002020200D0A3C2F7363726970743E200DB8
:100660000A3C2F626F64793E20200D0A2020202052
:100670002020200D0A3C2F68746D6C3E2020200D38
:010680000A6F
:03000000020D1BD3
:0C0D1B00787FE4F6D8FD75815A0209DDEE
:100B8800EB9FF5F0EA9E42F0E99D42F0EC6480C8E4
:060B980064809845F02284
:10068100E556244AF8E60556227847300702784AAB
:10069100E475F001120BF6020B9E2000EB7F2ED2C7
:1006A100008018EF540F2490D43440D4FF30040B51
:1006B100EF24BFB41A0050032461FFE5576002150F
:1006C10057055AE55A7002055930070D7847E47508
:1006D100F001120BF6EF020BE4020CF47403D207E3
:1006E1008003E4C207F5568B478A488949E4F557E8
:1006F100F559F55AE55760077F201206BC80F5755C
:1007010058FFC201C200C202C203C205C206C2082A
:1007110012068AFF700D3007057F001206CDAF5A11
:10072100AE5922B4255FC2D5C20412068AFF24D075
:10073100B40A00501A75F00A785730D50508B6FF8B
:100741000106C6A426F620D5047002D20380D9245E
:10075100CFB41A00EF5004C2E5D2040208CDD20191
:1007610080C6D20080C0D20280BCD2D580BAD20568
:1007710080B47F201206BC2002077401B5570040E7
:10078100F1120681FF1206BC0206F5D208D20680DC
:1007910095120681FB120681FA120681F94A4B7005
:1007A10006799E7A097BFF20022EE557602A7E009A
:1007B1008E82758300120BB760060EEE655870F0DD
:1007C100C2D5EBC0E0EAC0E0E9C0E0EE120914D006
:1007D100E0F9D0E0FAD0E0FB120B9EFF60AAEBC07B
:1007E100E0EAC0E0E9C0E01206BCD0E02401F9D0A3
:1007F100E03400FAD0E0FBE5580460DCD558D9803C
:10080100877BFF7A097910D202809C791080027966
:1008110008C206C2088008D2D5790A8004790AC2C2
:10082100D5E558047002F558E4FAFDFEFF12068181
:10083100FC7B08200113120681FD7B1030000A1297
:100841000681FE120681FF7B20EC3382D592D550C2
:1008510013C3E43000069FFFE49EFEE42001039DE4
:10086100FDE49CFCE4CBF8C201EC700CCFCECDCC06
:10087100E824F8F870F38017C3EF33FFEE33FEED91
:1008810033FDEC33FCEB33FB994002FB0FD8E9EB72
:10089100300105F8D0E0C448B201C0E00AEC4D4E89
:1008A1004F78207B0070C2EAB5580040BCC0E0120E
:1008B1000916D0F0D0E0200104C4C0E0C4B201C0E8
:1008C100F01206A5D0F0D5F0EB0206F5120C0607E2
:1008D1009253080C5807634C075F4208104F0818E1
:0F08E10044081849077843081E550802460802C4
:1008F0004508024709BE5007672D076B2E078E2B50
:10090000076F23078C2009A72A07274800000786BE
:100910003F3F3F00790AA2D5200314300509B910E2
:10092000020404B9080104A2D520060250010420E3
:1009300002689202B557005034C0E07F203003199E
:100940007F30A20272067205500F12096DC202C2F8
:1009500006C205C2087F30800F300503E9C0E012EF
:1009600006BC300503D0E0F9D0E0B557CC30051710
:100970007F30B9100C1206BC7F583004077F788096
:1009800003B908031206BC3002057F2D0206BC7FA6
:10099000202008F87F2B2006F322920280CF286EB9
:1009A000756C6C2900D2011206813001F8C2017801
:1009B0005730D50108F60207272D50434958120633
:1009C000812403B405004001E49009B9931206ADF7
:0D09D000743A1206ADD20375570402080CEC
:100C91008B478A488949AB4AAA4BA94C120B9EFE45
:100CA100AB47AA48A949120B9EFF6E702BEF600D4E
:100CB100E54E154E7002154D14454D70037F00220F
:100CC10074012549F549E43548F5487401254CF589
:100CD1004CE4354BF54B80BEAB47AA48A949120BF2
:100CE1009EFFD3EE6480F8EF64809840037F012279
:030CF1007FFF2260
:100B9E00BB010689828A83E0225002E722BBFE0255
:090BAE00E32289828A83E4932288
:100BB700BB010CE58229F582E5833AF583E02250F3
:100BC70006E92582F8E622BBFE06E92582F8E2223D
:0D0BD700E58229F582E5833AF583E4932257
:100BE400BB010689828A83F0225002F722BBFE01F0
:020BF400F322EA
:100BF600FAE6FB0808E6F925F0F618E6CA3AF62200
:100C0600D083D082F8E4937012740193700DA3A37D
:100C160093F8740193F5828883E473740293686091
:060C2600EFA3A3A380DF91
:100CF400EFB40A07740D120CFF740A309811A89906
:100D0400B8130CC2983098FDA899C298B811F6305F
:070D140099FDC299F5992237
:00000001FF
