:10000B00758CB2E508B4000812164E121A3D8033F7
:10001B00B4010512164E802BB4020812164E121A9A
:10002B003D8020B4030512164E8018B40408121636
:10003B004E121A3D800DB4050812164E750800803D
:06004B00040508800032EC
:101E2C0043151501B903080800000080000000806C
:101E3C0000808000000080800080008080C0C0C0D6
:101E4C00C0DCC0A6CAF0402000602000802000A0AA
:101E5C002000C02000E02000004000204000404056
:101E6C0000604000804000A04000C04000E0400006
:101E7C00006000206000406000606000806000A096
:101E8C006000C06000E060000080002080004080A6
:101E9C0000608000808000A08000C08000E0800096
:101EAC0000A00020A00040A00060A00080A000A026
:101EBC00A000C0A000E0A00000C00020C00040C0F6
:101ECC000060C00080C000A0C000C0C000E0C00026
:101EDC0000E00020E00040E00060E00080E000A0B6
:101EEC00E000C0E000E0E0000000402000404000C6
:101EFC0040600040800040A00040C00040E0004036
:101F0C00002040202040402040602040802040A005
:101F1C002040C02040E02040004040204040404055
:101F2C0040604040804040A04040C04040E04040C5
:101F3C00006040206040406040606040806040A095
:101F4C006040C06040E060400080402080404080A5
:101F5C0040608040808040A08040C08040E0804055
:101F6C0000A04020A04040A04060A04080A040A025
:101F7C00A040C0A040E0A04000C04020C04040C0F5
:101F8C004060C04080C040A0C040C0C040E0C040E5
:101F9C0000E04020E04040E04060E04080E040A0B5
:101FAC00E040C0E040E0E0400000802000804000C5
:101FBC0080600080800080A00080C00080E00080F5
:101FCC00002080202080402080602080802080A005
:101FDC002080C02080E02080004080204080404055
:101FEC0080604080804080A04080C04080E0408085
:101FFC00006080206080406080606080806080A095
:10200C006080C06080E060800080802080804080A4
:10201C0080608080808080A08080C08080E0808014
:10202C0000A08020A08040A08060A08080A080A024
:10203C00A080C0A080E0A08000C08020C08040C0F4
:10204C008060C08080C080A0C080C0C080E0C080A4
:10205C0000E08020E08040E08060E08080E080A0B4
:10206C00E080C0E080E0E0800000C02000C04000C4
:10207C00C06000C08000C0A000C0C000C0E000C0B4
:10208C000020C02020C04020C06020C08020C0A004
:10209C0020C0C020C0E020C00040C02040C0404054
:1020AC00C06040C08040C0A040C0C040C0E040C044
:1020BC000060C02060C04060C06060C08060C0A094
:1020CC0060C0C060C0E060C00080C02080C04080A4
:1020DC00C06080C08080C0A080C0C080C0E080C0D4
:1020EC0000A0C020A0C040A0C060A0C080A0C0A024
:1020FC00A0C0C0A0C0E0A0C000C0C020C0C040C0F4
:10210C00C060C0C080C0C0A0C0C0FFFBF0A0A0A435
:10211C00808080FF000000FF00FFFF000000FFFF39
:10212C0000FF00FFFFFFFFFF01014600BF01047F1E
:10213C00BF010E0001037F666501037FBF010B0029
:10214C0001047F5C6566A50103DA01090001047FC7
:10215C00774A4A5CE40103DA01090001047F7765E0
:10216C00777FF600F7F7AF01070001047F6F0103DB
:10217C007FF6EF8E667F7F0107007F6F5C525C7F7E
:10218C007FF6EF8E8E967F7F0107007F6665536624
:10219C007FF6EF01038E967F7F01070001037F52CC
:1021AC007FF6EF01048E9E7F7F0108007FECDAED55
:1021BC00EF01058EAF7F7F0108007FE4DA00010597
:1021CC008E667F7F010A00E4DAE49F8E8E9E677F25
:1021DC007F010C00DAE401067F010F0001057F018D
:0321EC005B000095
:0A254D0003110000FF031600000058
:1021EF00758901758CB275A882D28CE4F508FBFD58
:1021FF00FF12125A7519647B007A0079117D2CAF8A
:10220F00191212050519E519D3948C40EA7BFF7A50
:10221F001E792C7D367F6E12120A7514007515010A
:10222F00E4F50FF510F50BF50CF509F50AE52D455D
:10223F002C70FA7F2712127840030222D77BFF7A85
:10224F001E792C7D367F6E12120A751A2C7B007A3E
:10225F00007911AD1A7F8D121205051AE51AD39464
:10226F005440EA750D647B007A0079167D2CAF0D12
:10227F00121205050DE50DD3948C40EA750D647BA4
:10228F00007A0079167D54AF0D121205050DE50D7C
:10229F00D3948C40EA750E2C7B007A007916AD0E24
:1022AF007F64121205050EE50ED3945440EAE4F54F
:1022BF0014F515F50FF510F50BF50CF509750A0169
:1022CF007F1EFEFDFC1211FB7F25121278400302C8
:1022DF00236C7BFF7A1E792C7D367F6E12120A7566
:1022EF001A2C7B007A007911AD1A7F641212050542
:1022FF001AE51AD3945440EA750E2C7B007A0079B4
:10230F0016AD0E7F8D121205050EE50ED3945440B7
:10231F00EA750D647B007A0079167D2CAF0D1212D1
:10232F0005050DE50DD3948C40EA750D647B007A9D
:10233F000079167D54AF0D121205050DE50DD394DE
:10234F008C40EAE4F514F515F50FF510F50B750C47
:10235F0001F509F50A7F1EFEFDFC1211FB7F261207
:10236F00127840030224027BFF7A1E792C7D367F80
:10237F006E12120A7519647B007A0079117D2CAFE9
:10238F00191212050519E519D3948C40EA750E2C14
:10239F007B007A007916AD0E7F8D121205050EE5C2
:1023AF000ED3945440EA750D647B007A0079167D44
:1023BF0054AF0D121205050DE50DD3948C40EA753F
:1023CF000E2C7B007A007916AD0E7F641212050574
:1023DF000EE50ED3945440EA751400751501E4F51B
:1023EF000FF510F50BF50CF509F50A7F1EFEFDFC38
:1023FF001211FB7F2812127840030224977BFF7A79
:10240F001E792C7D367F6E12120A7519647B007A45
:10241F000079117D54AF191212050519E519D394DE
:10242F008C40EA750E2C7B007A007916AD0E7F8DED
:10243F00121205050EE50ED3945440EA750D647B18
:10244F00007A0079167D2CAF0D121205050DE50DE2
:10245F00D3948C40EA750E2C7B007A007916AD0E62
:10246F007F64121205050EE50ED3945440EAE4F58D
:10247F0014F515F50F751001F50BF50CF509F50AA7
:10248F007F1EFEFDFC1211FB7F017E007D007C0094
:06249F001211FB02223CB9
:1000510043F0807800030808000000800000008061
:1000610000808000000080800080008080C0C0C0CF
:10007100C0DCC0A6CAF0402000602000802000A0A3
:100081002000C02000E0200000400020400040404F
:1000910000604000804000A04000C04000E04000FF
:1000A100006000206000406000606000806000A08F
:1000B1006000C06000E0600000800020800040809F
:1000C10000608000808000A08000C08000E080008F
:1000D10000A00020A00040A00060A00080A000A01F
:1000E100A000C0A000E0A00000C00020C00040C0EF
:1000F1000060C00080C000A0C000C0C000E0C0001F
:1001010000E00020E00040E00060E00080E000A0AE
:10011100E000C0E000E0E0000000402000404000BE
:1001210040600040800040A00040C00040E000402E
:10013100002040202040402040602040802040A0FE
:100141002040C02040E0204000404020404040404E
:1001510040604040804040A04040C04040E04040BE
:10016100006040206040406040606040806040A08E
:100171006040C06040E0604000804020804040809E
:1001810040608040808040A08040C08040E080404E
:1001910000A04020A04040A04060A04080A040A01E
:1001A100A040C0A040E0A04000C04020C04040C0EE
:1001B1004060C04080C040A0C040C0C040E0C040DE
:1001C10000E04020E04040E04060E04080E040A0AE
:1001D100E040C0E040E0E0400000802000804000BE
:1001E10080600080800080A00080C00080E00080EE
:1001F100002080202080402080602080802080A0FE
:100201002080C02080E0208000408020408040404D
:1002110080604080804080A04080C04080E040807D
:10022100006080206080406080606080806080A08D
:100231006080C06080E0608000808020808040809D
:1002410080608080808080A08080C08080E080800D
:1002510000A08020A08040A08060A08080A080A01D
:10026100A080C0A080E0A08000C08020C08040C0ED
:100271008060C08080C080A0C080C0C080E0C0809D
:1002810000E08020E08040E08060E08080E080A0AD
:10029100E080C0E080E0E0800000C02000C04000BD
:1002A100C06000C08000C0A000C0C000C0E000C0AD
:1002B1000020C02020C04020C06020C08020C0A0FD
:1002C10020C0C020C0E020C00040C02040C040404D
:1002D100C06040C08040C0A040C0C040C0E040C03D
:1002E1000060C02060C04060C06060C08060C0A08D
:1002F10060C0C060C0E060C00080C02080C040809D
:10030100C06080C08080C0A080C0C080C0E080C0CC
:1003110000A0C020A0C040A0C060A0C080A0C0A01C
:10032100A0C0C0A0C0E0A0C000C0C020C0C040C0EC
:10033100C060C0C080C0C0A0C0C0FFFBF0A0A0A42E
:10034100808080FF000000FF00FFFF000000FFFF32
:1003510000FF00FFFFFFFFFF0101FF0001FF0001A0
:10036100FF0001FF0001FF0001FF0001FF0001FF8D
:100371000001FF0001FF0001FF0001FF0001FF007C
:1003810001FF0001FF0001FF0001FF0001FF00016B
:100391002A00010DFF010E000107FF010C000107FA
:1003A100FF0108000106FF0103000113FF0197008F
:1003B100010DFF010E000107FF010C000107FF0104
:1003C10008000106FF0103000113FF019700010D61
:1003D100FF010E000107FF010C000107FF010800EA
:1003E1000106FF0103000113FF0194000107FF0152
:1003F10005000107FF010800010DFF0109000107C8
:10040100FF0108000106FF0103000107FF01A00031
:100411000107FF0105000107FF010800010DFF01B0
:1004210009000107FF0108000106FF0103000107A0
:10043100FF01A0000107FF0105000107FF01060000
:100441000106FF0105000107FF010600010AFF0087
:10045100000109FF0103000107FF01A0000107FFDF
:100461000105000107FF0106000106FF010500016A
:1004710007FF010600010AFF00000109FF01030057
:100481000107FF01A0000107FF0105000107FF01AE
:1004910006000106FF0105000107FF010600010A30
:1004A100FF00000109FF0103000107FF01A0000196
:1004B10007FF0112000106FF0105000107FF010608
:1004C100000107FF00000104FF00000106FF010316
:1004D100000107FF01A0000107FF0112000106FF53
:1004E1000105000107FF0106000107FF00000104EB
:1004F100FF00000106FF0103000107FF01A0000149
:1005010007FF0112000106FF0105000107FF0106B7
:10051100000107FF00000104FF00000106FF0103C5
:10052100000110FF0197000107FF0112000106FF02
:100531000105000107FF0106000107FF000001049A
:10054100FF00000106FF0103000110FF01970001F8
:1005510007FF0112000106FF0105000107FF010667
:10056100000107FF00000104FF00000106FF010375
:10057100000110FF0197000107FF0000010AFF01C0
:1005810006000112FF0106000107FF00000104FF40
:1005910000000106FF0103000107FF01A0000107A0
:1005A100FF0000010AFF0106000112FF0106000120
:1005B10007FF00000104FF00000106FF0103000125
:1005C10007FF01A0000107FF0105000107FF010668
:1005D100000106FF0105000107FF0106000107FFF9
:1005E1000108000106FF0103000107FF01A000014E
:1005F10007FF0105000107FF0106000106FF0105D4
:10060100000107FF0106000107FF0108000106FFC5
:100611000103000107FF01A0000107FF010500011F
:1006210007FF0106000106FF0105000107FF0106A2
:10063100000107FF0108000106FF0103000107FF98
:1006410001A0000107FF0105000107FF01060001EC
:1006510006FF0105000107FF0106000107FF010870
:10066100000106FF0103000107FF01A0000107FFD0
:100671000105000107FF0106000106FF0105000158
:1006810007FF0106000107FF0108000106FF010342
:10069100000107FF01A3000110FF0106000106FF91
:1006A1000105000107FF0106000107FF0108000124
:1006B10006FF0103000113FF0197000110FF01066E
:1006C100000106FF0105000107FF0106000107FF08
:1006D1000108000106FF0103000113FF01FF0001F2
:1006E100FF0001FF0001FF0001FF00014D00010DAE
:1006F100FF0109000106FF0105000107FF010600D6
:100701000112FF0106000110FF019A00010DFF0116
:1007110009000106FF0105000107FF0106000112A2
:10072100FF0106000110FF019A00010DFF01090000
:100731000106FF0105000107FF0106000112FF018B
:1007410006000110FF0197000107FF0105000107E5
:10075100FF0106000106FF0105000107FF01060078
:100761000107FF0111000107FF0105000107FF015A
:1007710094000107FF0105000107FF0106000106C2
:10078100FF0105000107FF0106000107FF0111003C
:100791000107FF0105000107FF0194000107FF01A7
:1007A10005000107FF0106000106FF010500010721
:1007B100FF0106000107FF0111000107FF0105000C
:1007C1000107FF0194000107FF0105000107FF0177
:1007D10006000106FF0105000107FF0106000107F0
:1007E100FF0111000107FF0105000107FF0194004E
:1007F1000107FF0105000107FF0106000106FF01D6
:1008010005000107FF0106000107FF0111000107B3
:10081100FF0105000107FF0194000107FF01050029
:100821000107FF0106000106FF0105000107FF01A5
:1008310006000107FF0111000107FF010500010783
:10084100FF0194000107FF0105000107FF010600F8
:100851000106FF0105000107FF0106000107FF0175
:1008610011000107FF0105000107FF0194000107C5
:10087100FF0105000107FF0106000106FF01050058
:100881000107FF0106000110FF0108000110FF012F
:1008910097000107FF0105000107FF01060001069E
:1008A100FF0105000107FF0106000110FF0108001B
:1008B1000110FF0197000107FF0105000107FF017A
:1008C10006000106FF0105000107FF0106000107FF
:1008D100FF0111000107FF00000107FF019700015F
:1008E10007FF0105000107FF0106000106FF0105E1
:1008F100000107FF0106000107FF0111000107FFC9
:1009010000000107FF0197000107FF010500010732
:10091100FF0106000106FF0105000107FF010600B6
:100921000107FF0111000107FF00000107FF019707
:10093100000107FF0105000107FF0106000106FF95
:100941000105000107FF0106000107FF0111000178
:1009510007FF0105000107FF0194000107FF0105E1
:10096100000107FF0106000106FF0105000107FF65
:100971000106000107FF0111000107FF0105000148
:1009810007FF0194000107FF0105000107FF0108AE
:1009910000010DFF0109000107FF0111000107FF1F
:1009A1000105000107FF0194000107FF0105000196
:1009B10007FF010800010DFF0109000107FF0111F7
:1009C100000107FF0105000107FF0194000107FF76
:1009D1000105000107FF010800010DFF01090001E8
:1009E10007FF0111000107FF0105000107FF019742
:1009F10000010DFF010E000107FF010C000112FFB4
:100A01000106000107FF0105000107FF0197000131
:100A11000DFF010E000107FF010C000112FF01068D
:100A2100000107FF0105000107FF01FF0001FF00B1
:100A310001FF0001FF0001FF0001FF0001FF0001B4
:100A4100FF0001FF0001FF00000103FF011600018B
:100A510003FF0105000103FF010E000105FF01B9BC
:100A6100000103FF0116000103FF0105000103FF5F
:100A71000110000103FF01B6000106FF010300019F
:100A810005FF0103000106FF0105000103FF010449
:100A9100000107FF010D000103FF0105000105FF32
:100AA1000104000105FF0104000106FF010300012B
:100AB10005FF0190000103FF000103FF0000010396
:100AC100FF000103FF00000103FF000103FF010C10
:100AD100000103FF0110000103FF0104000103FFF6
:100AE100000103FF00000103FF000103FF000001FB
:100AF10003FF0106000103FF000103FF018F000155
:100B010003FF000103FF00000103FF000103FF00D9
:100B1100000103FF000103FF010C000103FF0110AD
:100B2100000103FF0104000103FF000103FF0000B6
:100B31000103FF000103FF00000103FF01060001A3
:100B410003FF000103FF018F000103FF000103FF09
:100B510000000103FF000103FF00000103FF00018A
:100B610003FF010C000103FF0110000103FF010459
:100B7100000103FF000103FF00000103FF00010367
:100B8100FF0103000105FF0103000107FF018F00C1
:100B91000103FF000103FF00000103FF000103FF48
:100BA10000000103FF000103FF010C000103FF012D
:100BB10010000103FF0104000103FF000103FF0016
:100BC100000103FF000103FF0106000103FF000014
:100BD1000103FF0193000103FF000103FF00000176
:100BE10003FF000103FF00000103FF000103FF01F8
:100BF1000C000103FF0110000103FF0104000103C8
:100C0100FF000103FF00000103FF000103FF0106D4
:100C1100000103FF00000103FF0194000106FF0131
:100C210003000105FF0103000103FF000103FF01B0
:100C31000D000105FF010B000107FF010300010584
:100C4100FF0104000105FF0103000106FF0104008B
:100C51000105FF01FF0001FF0001FF0001FF00018D
:100C610064000105FF0105000105FF010300010505
:100C7100FF0105000105FF010C000103FF00010355
:100C8100FF00000105FF01B5000106FF010500019C
:100C910003FF0104000106FF0105000103FF010D2F
:100CA100000103FF000103FF00000106FF01B40082
:100CB1000103FF000103FF0104000103FF01040020
:100CC1000103FF000103FF0104000103FF010E0006
:100CD1000105FF0103000103FF000103FF01B30050
:100CE1000103FF000103FF0104000103FF010400F0
:100CF1000103FF000103FF0104000103FF010F00D5
:100D01000103FF0104000103FF000103FF01B30020
:100D11000103FF000103FF0104000103FF010400BF
:100D21000103FF000103FF0104000103FF010F00A4
:100D31000103FF0104000103FF000103FF01B300F0
:100D41000103FF000103FF0104000103FF0104008F
:100D51000103FF000103FF0104000103FF010E0075
:100D61000105FF0103000103FF000103FF01B300BF
:100D71000103FF000103FF0104000103FF0104005F
:100D81000103FF000103FF0104000103FF010D0046
:100D91000103FF000103FF00000103FF000103FF46
:100DA10001B3000106FF0105000103FF0104000179
:100DB10006FF0105000103FF010D000103FF000112
:100DC10003FF00000106FF01B4000105FF0105005A
:100DD1000105FF0103000105FF0105000105FF01F8
:100DE1000C000103FF000103FF00000105FF01FFEB
:100DF1000001FF0001FF0001FF0001FF0001FF00F2
:100E010001FF0001FF0001FF0001FF0001FF0001E0
:100E1100FF0001FF0001FF0001FF0001FF0001FFD2
:100E21000001FF0001FF0001FF0001FF0001FF00C1
:100E310001FF0001FF0001FF0001FF0001B90000F7
:100E4100431F1F03C1030808000000800000008049
:100E510000808000000080800080008080C0C0C0D1
:100E6100C0DCC0A6CAF0402000602000802000A0A5
:100E71002000C02000E02000004000204000404051
:100E810000604000804000A04000C04000E0400001
:100E9100006000206000406000606000806000A091
:100EA1006000C06000E060000080002080004080A1
:100EB10000608000808000A08000C08000E0800091
:100EC10000A00020A00040A00060A00080A000A021
:100ED100A000C0A000E0A00000C00020C00040C0F1
:100EE1000060C00080C000A0C000C0C000E0C00021
:100EF10000E00020E00040E00060E00080E000A0B1
:100F0100E000C0E000E0E0000000402000404000C0
:100F110040600040800040A00040C00040E0004030
:100F2100002040202040402040602040802040A000
:100F31002040C02040E02040004040204040404050
:100F410040604040804040A04040C04040E04040C0
:100F5100006040206040406040606040806040A090
:100F61006040C06040E060400080402080404080A0
:100F710040608040808040A08040C08040E0804050
:100F810000A04020A04040A04060A04080A040A020
:100F9100A040C0A040E0A04000C04020C04040C0F0
:100FA1004060C04080C040A0C040C0C040E0C040E0
:100FB10000E04020E04040E04060E04080E040A0B0
:100FC100E040C0E040E0E0400000802000804000C0
:100FD10080600080800080A00080C00080E00080F0
:100FE100002080202080402080602080802080A000
:100FF1002080C02080E02080004080204080404050
:1010010080604080804080A04080C04080E040807F
:10101100006080206080406080606080806080A08F
:101021006080C06080E0608000808020808040809F
:1010310080608080808080A08080C08080E080800F
:1010410000A08020A08040A08060A08080A080A01F
:10105100A080C0A080E0A08000C08020C08040C0EF
:101061008060C08080C080A0C080C0C080E0C0809F
:1010710000E08020E08040E08060E08080E080A0AF
:10108100E080C0E080E0E0800000C02000C04000BF
:10109100C06000C08000C0A000C0C000C0E000C0AF
:1010A1000020C02020C04020C06020C08020C0A0FF
:1010B10020C0C020C0E020C00040C02040C040404F
:1010C100C06040C08040C0A040C0C040C0E040C03F
:1010D1000060C02060C04060C06060C08060C0A08F
:1010E10060C0C060C0E060C00080C02080C040809F
:1010F100C06080C08080C0A080C0C080C0E080C0CF
:1011010000A0C020A0C040A0C060A0C080A0C0A01E
:10111100A0C0C0A0C0E0A0C000C0C020C0C040C0EE
:10112100C060C0C080C0C0A0C0C0FFFBF0A0A0A430
:10113100808080FF000000FF00FFFF000000FFFF34
:1011410000FF00FFFFFFFFFF0101FF00010300FFA0
:10115100011C00FFFF011C00FFFF011A000105FF38
:101161000119000105FF0119000105FF011A000124
:101171001CFF0000011DFF010300011CFF01030012
:101181000105FF011B000105FF011B000105FF0116
:101191001D00FFFF011E00FFFF011F00FF01FF00F7
:0411A100010C00003D
:10255700C18002250000022700000221000002239B
:062567000000022C000040
:10256E007BFF7A007951E4FDFF12120A752C00757B
:07257E002D01AE2CAF2D2250
:10164E00E52D452C6003021A3CAF22AD247BFF7AB8
:10165E000E794112120AE529700302186214700302
:10166E00021954147003021770146003021A3CE539
:10167E0022152270021521E524152470021523D39C
:10168E00E5229400E52164809480402BE50A6401F4
:10169E0045097028E522648E45217020D3740D957E
:1016AE0024E5236480F87480985011E5249454E561
:1016BE0023648094805005752902802CE50A450923
:1016CE007026E52264844521701ED3740D9524E5A1
:1016DE00236480F8748098500FE5249454E52364B5
:1016EE00809480500312256ED3E5249400E5236484
:1016FE008094804029E5106401450F702EE5246426
:10170E005545237026E5229445E52164809480405A
:10171E001AD3E522948CE52164809480500DE5293E
:10172E00B40205E4F5298003752901E510450F6023
:10173E0003021A3CE524645245236003021A3CC39B
:10174E00E5229445E521648094805003021A3CD32F
:10175E00E522948CE521648094804003021A3C02B9
:10176E001A390522E52270020521E524152470029E
:10177E001523C3E52294DBE52164809480502AE58D
:10178E000C6401450B7027E52264454521701F74DA
:10179E000D9524E5236480F87480985011E5249407
:1017AE0054E523648094805005752903802CE50C44
:1017BE00450B7026E522644F4521701ED374179594
:1017CE0024E5236480F8748098500FE5249454E542
:1017DE002364809480500312256ED3E5249400E593
:1017EE0023648094804029E5106401450F702EE536
:1017FE0024645545237026E5229445E521648094A2
:10180E0080401AD3E522948CE52164809480500D9B
:10181E00E529B4030475290122E4F52922E51045D2
:10182E000F6003021A3CE524645245236003021A3A
:10183E003CC3E522944FE521648094805003021A44
:10184E003CD3E522948CE521648094804003021AF7
:10185E003C021A390522E522700205210524E524F1
:10186E0070020523C3E52294DBE521648094805049
:10187E002AE50C6401450B7027E52264454521706D
:10188E001F740D9524E5236480F87480985011E53B
:10189E00249454E523648094805005752901802C8E
:1018AE00E50C450B7026E522644F4521701ED3745E
:1018BE000D9524E5236480F8748098500FE52494E8
:1018CE0054E52364809480500312256ED3E524944E
:1018DE006BE52364809480502AE5156401451470ED
:1018EE002DE524640C4523702574459522E521646D
:1018FE0080F87480985017E522948CE521648094CA
:10190E0080500BE529B40103021A0C021A08E515E2
:10191E0045146003021A3CE524641C45236003024F
:10192E001A3CD374459522E5216480F87480984062
:10193E0003021A3CE522948CE521648094804003D6
:10194E00021A3C021A39E5221522700215210524CD
:10195E00E52470020523D3E5229400E521648094EA
:10196E0080402BE50A640145097028E52264844510
:10197E00217020D3740D9524E5236480F87480982B
:10198E005011E5249454E523648094805005E4F5C9
:10199E0029802CE50A45097026E5226482452170CE
:1019AE001ED3740D9524E5236480F8748098500F2F
:1019BE00E5249454E52364809480500312256EC36D
:1019CE00E524946BE52364809480502AE515640128
:1019DE004514702EE524640C45237026744595221B
:1019EE00E5216480F87480985018E522948CE521E6
:1019FE0064809480500CE5297004752902227529A3
:101A0E000322E51545147026E524641C4523701E3B
:101A1E00D374459522E5216480F8748098500FE5C3
:0F1A2E0022948CE52164809480500312256E224F
:101A3D00E52D452C6003021E2BAF26AD287BFF7ACA
:101A4D000E794112120AE52A7003021C511470031B
:101A5D00021D43147003021B5F146003021E2BE56D
:101A6D0026152670021525E528152870021527D391
:101A7D00E5269400E52564809480402BE50A6401F9
:101A8D0045097028E526648E45257020D3740D9583
:101A9D0028E5276480F87480985011E5289454E562
:101AAD0027648094805005752A02802CE50A45092B
:101ABD007026E52664844525701ED3740D9528E5A2
:101ACD00276480F8748098500FE5289454E52764B6
:101ADD00809480500312256ED3E5289400E5276489
:101AED008094804029E5106401450F702EE528642F
:101AFD005545277026E5269445E52564809480405C
:101B0D001AD3E526948CE52564809480500DE52A42
:101B1D00B40205E4F52A8003752A01E510450F602E
:101B2D0003021E2BE528645245276003021E2BC3BA
:101B3D00E5269445E525648094805003021E2BD341
:101B4D00E526948CE525648094804003021E2B02CB
:101B5D001E280526E52670020525E52815287002A4
:101B6D001527C3E52694DBE52564809480502AE58E
:101B7D000C6401450B7027E52664454525701F74DF
:101B8D000D9528E5276480F87480985011E5289408
:101B9D0054E527648094805005752A03802CE50C4C
:101BAD00450B7026E526644F4525701ED374179599
:101BBD0028E5276480F8748098500FE5289454E543
:101BCD002764809480500312256ED3E5289400E598
:101BDD0027648094804029E5106401450F702EE53F
:101BED0028645545277026E5269445E5256480949F
:101BFD0080401AD3E526948CE52564809480500DA1
:101C0D00E52AB40304752A0122E4F52A22E51045DC
:101C1D000F6003021E2BE528645245276003021E48
:101C2D002BC3E526944FE525648094805003021E56
:101C3D002BD3E526948CE525648094804003021E09
:101C4D002B021E280526E526700205250528E52808
:101C5D0070020527C3E52694DBE52564809480504A
:101C6D002AE50C6401450B7027E526644545257072
:101C7D001F740D9528E5276480F87480985011E540
:101C8D00289454E527648094805005752A01802C92
:101C9D00E50C450B7026E526644F4525701ED37463
:101CAD000D9528E5276480F8748098500FE52894E9
:101CBD0054E52764809480500312256ED3E5289453
:101CCD006BE52764809480502AE5156401451470F6
:101CDD002DE528640C4527702574459526E525646A
:101CED0080F87480985017E526948CE525648094CF
:101CFD0080500BE52AB40103021DFB021DF7E5150B
:101D0D0045146003021E2BE528641C452760030261
:101D1D001E2BD374459526E5256480F87480984074
:101D2D0003021E2BE526948CE525648094804003E8
:101D3D00021E2B021E28E5261526700215250528E4
:101D4D00E52870020527D3E5269400E525648094E7
:101D5D0080402BE50A640145097028E52664844519
:101D6D00257020D3740D9528E5276480F87480982C
:101D7D005011E5289454E527648094805005E4F5CE
:101D8D002A802CE50A45097026E5266482452570D2
:101D9D001ED3740D9528E5276480F8748098500F34
:101DAD00E5289454E52764809480500312256EC372
:101DBD00E528946BE52764809480502AE51564012D
:101DCD004514702EE528640C45277026744595261C
:101DDD00E5256480F87480985018E526948CE525E7
:101DED0064809480500CE52A7004752A0222752AAD
:101DFD000322E51545147026E528641C4527701E41
:101E0D00D374459526E5256480F8748098500FE5C8
:0F1E1D0026948CE52564809480500312256E2254
:1011A50090FE00E030E7FC547FF0A3E0FF22C2018F
:1011B5002290FE00E0A2E722CECFCE22CCCFCCCD2E
:1011C500CECD22BBFF03E49322BB0102E022BB008C
:1011D50002E722E3221211B650181211A589828A5C
:1011E50083EFBB0103F08009BB0003F78003C380D5
:1011F50001D322EDFE2212132F90FEE0E070FA22B9
:10120500740002FFFC740102FFFC740202FFFC740F
:101215000302FFFC740402FFFC740502FFFC740664
:1012250002FFFC740702FFFC740802FFFC7409024C
:10123500FFFC740A02FFFC740B02FFFC740C02FF36
:10124500FC740D02FFFC740E02FFFC740F02FFFC20
:10125500741002FFFC741102FFFC741902FFFC7488
:101265001A02FFFC741B02FFFC741C02FFFC741DB8
:1012750002FFFC741E02FFFC741F02FFFC742002B7
:10128500FFFC742102FFFC742202FFFC742302FFA1
:10129500FC742402FFFC742502FFFC742602FFFC8B
:1012A500742702FFFC742802FFFC742902FFFC74FA
:1012B5002A02FFFC742B02FFFC742C02FFFC742D28
:1012C50002FFFC742E02FFFC742F02FFFC74300237
:0912D500FFFC743102FFFC7432CD
:1012DE0002FFFC743302FFFC743402FFFC7435020F
:1012EE00FFFC743602FFFC743702FFFC743802FFF9
:1012FE00FC743902FFFC743A02FFFC743B02FFFCE3
:10130E00743C02FFFC743F90134802FFFC744102D0
:10131E00FFFC744202FFFC744302FFFC744402FFA4
:10132E00FC744502FFFC744602FFFC744702FFFC8E
:10133E00744802FFFC746302FFFC302E37397300D1
:10134E000000000000AA00AA0000AAAAAA0000AA93
:10135E0000AAAA5500AAAAAA5555555555FF55FFDC
:10136E005555FFFFFF5555FF55FFFFFF55FFFFFF7B
:10137E000000001414142020202C2C2C3838384552
:10138E0045455151516161617171718282829292B2
:10139E0092A2A2A2B6B6B6CBCBCBE3E3E3FFFFFF9E
:1013AE000000FF4100FF7D00FFBE00FFFF00FFFFBA
:1013BE0000BEFF007DFF0041FF0000FF4100FF7DEA
:1013CE0000FFBE00FFFF00BEFF007DFF0041FF00DB
:1013DE0000FF0000FF4100FF7D00FFBE00FFFF0089
:1013EE00BEFF007DFF0041FF7D7DFF9E7DFFBE7D28
:1013FE00FFDF7DFFFF7DFFFF7DDFFF7DBEFF7D9E5B
:10140E00FF7D7DFF9E7DFFBE7DFFDF7DFFFF7DDFCC
:10141E00FF7DBEFF7D9EFF7D7DFF7D7DFF9E7DFF5F
:10142E00BE7DFFDF7DFFFF7DDFFF7DBEFF7D9EFF6B
:10143E00B6B6FFC7B6FFDBB6FFEBB6FFFFB6FFFFD4
:10144E00B6EBFFB6DBFFB6C7FFB6B6FFC7B6FFDB20
:10145E00B6FFEBB6FFFFB6EBFFB6DBFFB6C7FFB6C8
:10146E00B6DFB6B6FFC7B6FFDBB6FFEBB6FFFFB60D
:10147E00EBFFB6DBFFB6C7FF0000711C0071380032
:10148E007155007171007171005571003871001C39
:10149E00710000711C00713800715500717100559A
:1014AE0071003871001C710000710000711C007118
:1014BE0038007155007171005571003871001C7142
:1014CE0038387145387155387161387171387171AC
:1014DE0038617138557138457138387145387155E4
:1014EE00387161387171386171385571384571389C
:1014FE0038713838714538715538716138717138B5
:10150E00617138557138457151517159517161512F
:10151E007169517171517171516971516171515985
:10152E007151517159517161517169517171516995
:10153E0071516171515971515171515171595171AD
:10154E006151716951717151697151617151597165
:10155E000000411000412000413000414100414156
:10156E000030410020410010410000411000412098
:10157E000041300041410030410020410010410047
:10158E000041000041100041200041300041410067
:10159E0030410020410010412020412820413020C0
:1015AE0041382041412041412038412030412028FE
:1015BE00412020412820413020413820414120380F
:1015CE004120304120284120204120204128204127
:1015DE0030204138204141203841203041202841DF
:1015EE002C2C41302C41342C413C2C41412C41417E
:1015FE002C3C412C34412C30412C2C41302C41348C
:10160E002C413C2C41412C3C412C34412C30412C62
:10161E002C412C2C41302C41342C413C2C41412C62
:10162E003C412C34412C30410000000000000000F1
:10163E00000000000000000000000000000000009C
:04FFFC00F1FE2200F0
:030000000224A532
:1024A50078FFE4F6D8FD80031225859001007F00B2
:1024B5007EFEE4F0A3DFFCDEFA78007F00E4F2089C
:0824C500DFFC75812D022508E2
:1024CD000221EFE493A3F8E493A34003F68001F215
:1024DD0008DFF48029E493A3F85407240CC8C33310
:1024ED00C4540F4420C8834004F456800146F6DFDF
:1024FD00E4800B010204081020408090254DE47EFD
:10250D00019360BCA3FF543F30E509541FFEE493D3
:10251D00A360010ECF54C025E060A840B8E493A39A
:10252D00FAE493A3F8E493A3C8C582C8CAC583CAC5
:10253D00F0A3C8C582C8CAC583CADFE9DEE780BE7D
:01256D00006D
:1025850010010B1211A5BF0D027F0A02130EAF1B1E
:012595002223
:00000001FF
